{
  "contractName": "UserAuthManager",
  "abi": [
    {
      "constant": false,
      "inputs": [],
      "name": "renounceOwnership",
      "outputs": [],
      "payable": false,
      "stateMutability": "nonpayable",
      "type": "function"
    },
    {
      "constant": false,
      "inputs": [],
      "name": "destroy",
      "outputs": [],
      "payable": false,
      "stateMutability": "nonpayable",
      "type": "function"
    },
    {
      "constant": true,
      "inputs": [],
      "name": "owner",
      "outputs": [
        {
          "name": "",
          "type": "address"
        }
      ],
      "payable": false,
      "stateMutability": "view",
      "type": "function"
    },
    {
      "constant": true,
      "inputs": [],
      "name": "isOwner",
      "outputs": [
        {
          "name": "",
          "type": "bool"
        }
      ],
      "payable": false,
      "stateMutability": "view",
      "type": "function"
    },
    {
      "constant": true,
      "inputs": [],
      "name": "dbAddress",
      "outputs": [
        {
          "name": "",
          "type": "address"
        }
      ],
      "payable": false,
      "stateMutability": "view",
      "type": "function"
    },
    {
      "constant": false,
      "inputs": [
        {
          "name": "newOwner",
          "type": "address"
        }
      ],
      "name": "transferOwnership",
      "outputs": [],
      "payable": false,
      "stateMutability": "nonpayable",
      "type": "function"
    },
    {
      "constant": false,
      "inputs": [
        {
          "name": "_recipient",
          "type": "address"
        }
      ],
      "name": "destroyAndSend",
      "outputs": [],
      "payable": false,
      "stateMutability": "nonpayable",
      "type": "function"
    },
    {
      "inputs": [
        {
          "name": "_dbAddress",
          "type": "address"
        }
      ],
      "payable": false,
      "stateMutability": "nonpayable",
      "type": "constructor"
    },
    {
      "anonymous": false,
      "inputs": [
        {
          "indexed": true,
          "name": "_userAddress",
          "type": "address"
        },
        {
          "indexed": false,
          "name": "isSetUp",
          "type": "bool"
        }
      ],
      "name": "SetUser",
      "type": "event"
    },
    {
      "anonymous": false,
      "inputs": [
        {
          "indexed": true,
          "name": "previousOwner",
          "type": "address"
        },
        {
          "indexed": true,
          "name": "newOwner",
          "type": "address"
        }
      ],
      "name": "OwnershipTransferred",
      "type": "event"
    },
    {
      "constant": false,
      "inputs": [
        {
          "name": "firstName",
          "type": "string"
        },
        {
          "name": "lastName",
          "type": "string"
        },
        {
          "name": "email",
          "type": "string"
        },
        {
          "name": "gravatar",
          "type": "bytes32"
        }
      ],
      "name": "setUser",
      "outputs": [],
      "payable": false,
      "stateMutability": "nonpayable",
      "type": "function"
    },
    {
      "constant": true,
      "inputs": [],
      "name": "login",
      "outputs": [
        {
          "name": "",
          "type": "bool"
        }
      ],
      "payable": false,
      "stateMutability": "view",
      "type": "function"
    }
  ],
  "bytecode": "0x608060405234801561001057600080fd5b50604051602080611a148339810180604052602081101561003057600080fd5b8101908080519060200190929190505050336000806101000a81548173ffffffffffffffffffffffffffffffffffffffff021916908373ffffffffffffffffffffffffffffffffffffffff1602179055506000809054906101000a900473ffffffffffffffffffffffffffffffffffffffff1673ffffffffffffffffffffffffffffffffffffffff16600073ffffffffffffffffffffffffffffffffffffffff167f8be0079c531659141344cd1fd0a4f28419497f9722a3daafe3b4186f6b6457e060405160405180910390a3600073ffffffffffffffffffffffffffffffffffffffff168173ffffffffffffffffffffffffffffffffffffffff16141561013757600080fd5b80600160006101000a81548173ffffffffffffffffffffffffffffffffffffffff021916908373ffffffffffffffffffffffffffffffffffffffff1602179055505061188c806101886000396000f3fe608060405234801561001057600080fd5b50600436106100935760003560e01c80638f32d59b116100665780638f32d59b1461022357806391e06b6d14610245578063b34e97e81461028f578063f2fde38b146102b1578063f5074f41146102f557610093565b8063715018a61461009857806383197ef0146100a2578063851aea7a146100ac5780638da5cb5b146101d9575b600080fd5b6100a0610339565b005b6100aa610409565b005b6101d7600480360360808110156100c257600080fd5b81019080803590602001906401000000008111156100df57600080fd5b8201836020820111156100f157600080fd5b8035906020019184600183028401116401000000008311171561011357600080fd5b90919293919293908035906020019064010000000081111561013457600080fd5b82018360208201111561014657600080fd5b8035906020019184600183028401116401000000008311171561016857600080fd5b90919293919293908035906020019064010000000081111561018957600080fd5b82018360208201111561019b57600080fd5b803590602001918460018302840111640100000000831117156101bd57600080fd5b90919293919293908035906020019092919050505061043a565b005b6101e1610592565b604051808273ffffffffffffffffffffffffffffffffffffffff1673ffffffffffffffffffffffffffffffffffffffff16815260200191505060405180910390f35b61022b6105bb565b604051808215151515815260200191505060405180910390f35b61024d610612565b604051808273ffffffffffffffffffffffffffffffffffffffff1673ffffffffffffffffffffffffffffffffffffffff16815260200191505060405180910390f35b610297610638565b604051808215151515815260200191505060405180910390f35b6102f3600480360360208110156102c757600080fd5b81019080803573ffffffffffffffffffffffffffffffffffffffff16906020019092919050505061066b565b005b6103376004803603602081101561030b57600080fd5b81019080803573ffffffffffffffffffffffffffffffffffffffff169060200190929190505050610688565b005b6103416105bb565b61034a57600080fd5b600073ffffffffffffffffffffffffffffffffffffffff166000809054906101000a900473ffffffffffffffffffffffffffffffffffffffff1673ffffffffffffffffffffffffffffffffffffffff167f8be0079c531659141344cd1fd0a4f28419497f9722a3daafe3b4186f6b6457e060405160405180910390a360008060006101000a81548173ffffffffffffffffffffffffffffffffffffffff021916908373ffffffffffffffffffffffffffffffffffffffff160217905550565b6104116105bb565b61041a57600080fd5b610422610592565b73ffffffffffffffffffffffffffffffffffffffff16ff5b610536600160009054906101000a900473ffffffffffffffffffffffffffffffffffffffff163389898080601f016020809104026020016040519081016040528093929190818152602001838380828437600081840152601f19601f8201169050808301925050505050505088888080601f016020809104026020016040519081016040528093929190818152602001838380828437600081840152601f19601f8201169050808301925050505050505087878080601f016020809104026020016040519081016040528093929190818152602001838380828437600081840152601f19601f82011690508083019250505050505050866106b2565b3373ffffffffffffffffffffffffffffffffffffffff167f6648b859e158f53470fd0dc1bf91fcede20e1eb2d71db770236d145353b08a606001604051808215151515815260200191505060405180910390a250505050505050565b60008060009054906101000a900473ffffffffffffffffffffffffffffffffffffffff16905090565b60008060009054906101000a900473ffffffffffffffffffffffffffffffffffffffff1673ffffffffffffffffffffffffffffffffffffffff163373ffffffffffffffffffffffffffffffffffffffff1614905090565b600160009054906101000a900473ffffffffffffffffffffffffffffffffffffffff1681565b6000610666600160009054906101000a900473ffffffffffffffffffffffffffffffffffffffff1633610d50565b905090565b6106736105bb565b61067c57600080fd5b61068581610d75565b50565b6106906105bb565b61069957600080fd5b8073ffffffffffffffffffffffffffffffffffffffff16ff5b60006106c56106c086610e6d565b610e9b565b905060006106da6106d586610e6d565b610e9b565b905060006106ef6106ea86610e6d565b610e9b565b905060006107328a6040518060400160405280601b81526020017f636f6e6669672f6d61782d757365722d6e616d652d6c656e6774680000000000815250610f5c565b905060006107758b6040518060400160405280601b81526020017f636f6e6669672f6d696e2d757365722d6e616d652d6c656e6774680000000000815250610f5c565b905060006107b88c6040518060400160405280601c81526020017f636f6e6669672f6d61782d757365722d656d61696c2d6c656e67746800000000815250610f5c565b905060006107fb8d6040518060400160405280601c81526020017f636f6e6669672f6d696e2d757365722d656d61696c2d6c656e67746800000000815250610f5c565b905083871115801561080d5750828710155b61081657600080fd5b8386111580156108265750828610155b61082f57600080fd5b81851115801561083f5750808510155b61084857600080fd5b6108528d8d611063565b8c73ffffffffffffffffffffffffffffffffffffffff1663f58660668d60405160200180807f757365722f66697273742d6e616d650000000000000000000000000000000000815250600f018273ffffffffffffffffffffffffffffffffffffffff1673ffffffffffffffffffffffffffffffffffffffff1660601b8152601401915050604051602081830303815290604052805190602001208d6040518363ffffffff1660e01b81526004018083815260200180602001828103825283818151815260200191508051906020019080838360005b83811015610942578082015181840152602081019050610927565b50505050905090810190601f16801561096f5780820380516001836020036101000a031916815260200191505b509350505050600060405180830381600087803b15801561098f57600080fd5b505af11580156109a3573d6000803e3d6000fd5b505050508c73ffffffffffffffffffffffffffffffffffffffff1663f58660668d60405160200180807f757365722f6c6173742d6e616d65000000000000000000000000000000000000815250600e018273ffffffffffffffffffffffffffffffffffffffff1673ffffffffffffffffffffffffffffffffffffffff1660601b8152601401915050604051602081830303815290604052805190602001208c6040518363ffffffff1660e01b81526004018083815260200180602001828103825283818151815260200191508051906020019080838360005b83811015610a97578082015181840152602081019050610a7c565b50505050905090810190601f168015610ac45780820380516001836020036101000a031916815260200191505b509350505050600060405180830381600087803b158015610ae457600080fd5b505af1158015610af8573d6000803e3d6000fd5b505050508c73ffffffffffffffffffffffffffffffffffffffff1663f58660668d60405160200180807f757365722f656d61696c00000000000000000000000000000000000000000000815250600a018273ffffffffffffffffffffffffffffffffffffffff1673ffffffffffffffffffffffffffffffffffffffff1660601b8152601401915050604051602081830303815290604052805190602001208b6040518363ffffffff1660e01b81526004018083815260200180602001828103825283818151815260200191508051906020019080838360005b83811015610bec578082015181840152602081019050610bd1565b50505050905090810190601f168015610c195780820380516001836020036101000a031916815260200191505b509350505050600060405180830381600087803b158015610c3957600080fd5b505af1158015610c4d573d6000803e3d6000fd5b505050508c73ffffffffffffffffffffffffffffffffffffffff166325cf512d8d60405160200180807f757365722f677261766174617200000000000000000000000000000000000000815250600d018273ffffffffffffffffffffffffffffffffffffffff1673ffffffffffffffffffffffffffffffffffffffff1660601b8152601401915050604051602081830303815290604052805190602001208a6040518363ffffffff1660e01b81526004018083815260200182815260200192505050600060405180830381600087803b158015610d2957600080fd5b505af1158015610d3d573d6000803e3d6000fd5b5050505050505050505050505050505050565b6000610d5c83836112d0565b15610d6a5760019050610d6f565b600090505b92915050565b600073ffffffffffffffffffffffffffffffffffffffff168173ffffffffffffffffffffffffffffffffffffffff161415610daf57600080fd5b8073ffffffffffffffffffffffffffffffffffffffff166000809054906101000a900473ffffffffffffffffffffffffffffffffffffffff1673ffffffffffffffffffffffffffffffffffffffff167f8be0079c531659141344cd1fd0a4f28419497f9722a3daafe3b4186f6b6457e060405160405180910390a3806000806101000a81548173ffffffffffffffffffffffffffffffffffffffff021916908373ffffffffffffffffffffffffffffffffffffffff16021790555050565b610e75611846565b600060208301905060405180604001604052808451815260200182815250915050919050565b600080601f83602001510390506000836000015182019050600092505b80821015610f5557600060ff835116905060808160ff161015610ee057600183019250610f47565b60e08160ff161015610ef757600283019250610f46565b60f08160ff161015610f0e57600383019250610f45565b60f88160ff161015610f2557600483019250610f44565b60fc8160ff161015610f3c57600583019250610f43565b6006830192505b5b5b5b5b508280600101935050610eb8565b5050919050565b60008273ffffffffffffffffffffffffffffffffffffffff1663bdc963d8836040516020018082805190602001908083835b60208310610fb15780518252602082019150602081019050602083039250610f8e565b6001836020036101000a038019825116818451168082178552505050505050905001915050604051602081830303815290604052805190602001206040518263ffffffff1660e01b81526004018082815260200191505060206040518083038186803b15801561102057600080fd5b505afa158015611034573d6000803e3d6000fd5b505050506040513d602081101561104a57600080fd5b8101908080519060200190929190505050905092915050565b61106d82826112d0565b6112cc578173ffffffffffffffffffffffffffffffffffffffff16633562fd208260405160200180807f757365722f637265617465642d6f6e0000000000000000000000000000000000815250600f018273ffffffffffffffffffffffffffffffffffffffff1673ffffffffffffffffffffffffffffffffffffffff1660601b815260140191505060405160208183030381529060405280519060200120426040518363ffffffff1660e01b81526004018083815260200182815260200192505050600060405180830381600087803b15801561114957600080fd5b505af115801561115d573d6000803e3d6000fd5b505050508173ffffffffffffffffffffffffffffffffffffffff16630bd851588260405160200180807f757365722f737461747573000000000000000000000000000000000000000000815250600b018273ffffffffffffffffffffffffffffffffffffffff1673ffffffffffffffffffffffffffffffffffffffff1660601b81526014019150506040516020818303038152906040528051906020012060016040518363ffffffff1660e01b8152600401808381526020018260ff16815260200192505050600060405180830381600087803b15801561123d57600080fd5b505af1158015611251573d6000803e3d6000fd5b505050506112cb826040518060400160405280600981526020017f75736572732f69647300000000000000000000000000000000000000000000008152506040518060400160405280600b81526020017f75736572732f636f756e74000000000000000000000000000000000000000000815250846112e9565b5b5050565b6000806112dd8484611733565b60ff1611905092915050565b60008473ffffffffffffffffffffffffffffffffffffffff1663bdc963d8846040516020018082805190602001908083835b6020831061133e578051825260208201915060208101905060208303925061131b565b6001836020036101000a038019825116818451168082178552505050505050905001915050604051602081830303815290604052805190602001206040518263ffffffff1660e01b81526004018082815260200191505060206040518083038186803b1580156113ad57600080fd5b505afa1580156113c1573d6000803e3d6000fd5b505050506040513d60208110156113d757600080fd5b810190808051906020019092919050505090508473ffffffffffffffffffffffffffffffffffffffff16635a2bf25a85836040516020018083805190602001908083835b6020831061143e578051825260208201915060208101905060208303925061141b565b6001836020036101000a0380198251168184511680821785525050505050509050018281526020019250505060405160208183030381529060405280519060200120846040518363ffffffff1660e01b8152600401808381526020018273ffffffffffffffffffffffffffffffffffffffff1673ffffffffffffffffffffffffffffffffffffffff16815260200192505050600060405180830381600087803b1580156114ea57600080fd5b505af11580156114fe573d6000803e3d6000fd5b505050508473ffffffffffffffffffffffffffffffffffffffff16633562fd2085846040516020018083805190602001908083835b602083106115565780518252602082019150602081019050602083039250611533565b6001836020036101000a0380198251168184511680821785525050505050509050018273ffffffffffffffffffffffffffffffffffffffff1673ffffffffffffffffffffffffffffffffffffffff1660601b8152601401807f696e6465780000000000000000000000000000000000000000000000000000008152506005019250505060405160208183030381529060405280519060200120836040518363ffffffff1660e01b81526004018083815260200182815260200192505050600060405180830381600087803b15801561162d57600080fd5b505af1158015611641573d6000803e3d6000fd5b505050508473ffffffffffffffffffffffffffffffffffffffff16633562fd20846040516020018082805190602001908083835b602083106116985780518252602082019150602081019050602083039250611675565b6001836020036101000a03801982511681845116808217855250505050505090500191505060405160208183030381529060405280519060200120600184016040518363ffffffff1660e01b81526004018083815260200182815260200192505050600060405180830381600087803b15801561171457600080fd5b505af1158015611728573d6000803e3d6000fd5b505050505050505050565b60008273ffffffffffffffffffffffffffffffffffffffff16637a0e03ec8360405160200180807f757365722f737461747573000000000000000000000000000000000000000000815250600b018273ffffffffffffffffffffffffffffffffffffffff1673ffffffffffffffffffffffffffffffffffffffff1660601b8152601401915050604051602081830303815290604052805190602001206040518263ffffffff1660e01b81526004018082815260200191505060206040518083038186803b15801561180357600080fd5b505afa158015611817573d6000803e3d6000fd5b505050506040513d602081101561182d57600080fd5b8101908080519060200190929190505050905092915050565b60405180604001604052806000815260200160008152509056fea165627a7a72305820254be41e8d549c5bbfd1b75443297032e625a191849d7188053885805f3357300029",
  "source": "pragma solidity ^0.5.0;\n\nimport './lib/userManager.sol';\n\ncontract UserAuthManager is Destructible {\n  address public dbAddress;\n  event SetUser(address indexed _userAddress, bool isSetUp);\n\n  constructor (address _dbAddress) public {\n    require(_dbAddress != address(0x0));\n    dbAddress = _dbAddress;\n  }\n\n  function setUser (\n    string calldata firstName,\n    string calldata lastName,\n    string calldata email,\n    bytes32 gravatar\n  )\n    external\n  {\n    userManager.setUser(dbAddress, msg.sender, firstName, lastName, email, gravatar);\n    emit SetUser(msg.sender, true);\n  }\n\n  function login ()\n    external\n    view\n    returns (bool)\n  {\n    return userManager.login(dbAddress, msg.sender);\n  }\n}\n",
  "sourcePath": "/home/shrish/DappEth/contracts/UserAuthManager.sol",
  "compiler": {
    "name": "solc",
    "version": "0.5.8+commit.23d335f2.Emscripten.clang"
  },
  "schemaVersion": "3.0.16",
  "updatedAt": "2019-11-11T05:54:55.417Z",
  "devdoc": {
    "methods": {
      "destroy()": {
        "details": "Transfers the current balance to the owner and terminates the contract."
      },
      "isOwner()": {
        "return": "true if `msg.sender` is the owner of the contract."
      },
      "owner()": {
        "return": "the address of the owner."
      },
      "renounceOwnership()": {
        "details": "Allows the current owner to relinquish control of the contract."
      },
      "transferOwnership(address)": {
        "details": "Allows the current owner to transfer control of the contract to a newOwner.",
        "params": {
          "newOwner": "The address to transfer ownership to."
        }
      }
    }
  },
  "userdoc": {
    "methods": {
      "renounceOwnership()": {
        "notice": "Renouncing to ownership will leave the contract without an owner. It will not be possible to call the functions with the `onlyOwner` modifier anymore."
      }
    }
  }
}